{
  "contractName": "MyERC1155",
  "abi": [
    {
      "inputs": [],
      "stateMutability": "nonpayable",
      "type": "constructor"
    },
    {
      "anonymous": false,
      "inputs": [
        {
          "indexed": true,
          "internalType": "address",
          "name": "account",
          "type": "address"
        },
        {
          "indexed": true,
          "internalType": "address",
          "name": "operator",
          "type": "address"
        },
        {
          "indexed": false,
          "internalType": "bool",
          "name": "approved",
          "type": "bool"
        }
      ],
      "name": "ApprovalForAll",
      "type": "event"
    },
    {
      "anonymous": false,
      "inputs": [
        {
          "indexed": true,
          "internalType": "address",
          "name": "previousOwner",
          "type": "address"
        },
        {
          "indexed": true,
          "internalType": "address",
          "name": "newOwner",
          "type": "address"
        }
      ],
      "name": "OwnershipTransferred",
      "type": "event"
    },
    {
      "anonymous": false,
      "inputs": [
        {
          "indexed": true,
          "internalType": "address",
          "name": "operator",
          "type": "address"
        },
        {
          "indexed": true,
          "internalType": "address",
          "name": "from",
          "type": "address"
        },
        {
          "indexed": true,
          "internalType": "address",
          "name": "to",
          "type": "address"
        },
        {
          "indexed": false,
          "internalType": "uint256[]",
          "name": "ids",
          "type": "uint256[]"
        },
        {
          "indexed": false,
          "internalType": "uint256[]",
          "name": "values",
          "type": "uint256[]"
        }
      ],
      "name": "TransferBatch",
      "type": "event"
    },
    {
      "anonymous": false,
      "inputs": [
        {
          "indexed": true,
          "internalType": "address",
          "name": "operator",
          "type": "address"
        },
        {
          "indexed": true,
          "internalType": "address",
          "name": "from",
          "type": "address"
        },
        {
          "indexed": true,
          "internalType": "address",
          "name": "to",
          "type": "address"
        },
        {
          "indexed": false,
          "internalType": "uint256",
          "name": "id",
          "type": "uint256"
        },
        {
          "indexed": false,
          "internalType": "uint256",
          "name": "value",
          "type": "uint256"
        }
      ],
      "name": "TransferSingle",
      "type": "event"
    },
    {
      "anonymous": false,
      "inputs": [
        {
          "indexed": false,
          "internalType": "string",
          "name": "value",
          "type": "string"
        },
        {
          "indexed": true,
          "internalType": "uint256",
          "name": "id",
          "type": "uint256"
        }
      ],
      "name": "URI",
      "type": "event"
    },
    {
      "inputs": [
        {
          "internalType": "address",
          "name": "account",
          "type": "address"
        },
        {
          "internalType": "uint256",
          "name": "id",
          "type": "uint256"
        }
      ],
      "name": "balanceOf",
      "outputs": [
        {
          "internalType": "uint256",
          "name": "",
          "type": "uint256"
        }
      ],
      "stateMutability": "view",
      "type": "function",
      "constant": true
    },
    {
      "inputs": [
        {
          "internalType": "address[]",
          "name": "accounts",
          "type": "address[]"
        },
        {
          "internalType": "uint256[]",
          "name": "ids",
          "type": "uint256[]"
        }
      ],
      "name": "balanceOfBatch",
      "outputs": [
        {
          "internalType": "uint256[]",
          "name": "",
          "type": "uint256[]"
        }
      ],
      "stateMutability": "view",
      "type": "function",
      "constant": true
    },
    {
      "inputs": [
        {
          "internalType": "address",
          "name": "account",
          "type": "address"
        },
        {
          "internalType": "address",
          "name": "operator",
          "type": "address"
        }
      ],
      "name": "isApprovedForAll",
      "outputs": [
        {
          "internalType": "bool",
          "name": "",
          "type": "bool"
        }
      ],
      "stateMutability": "view",
      "type": "function",
      "constant": true
    },
    {
      "inputs": [],
      "name": "owner",
      "outputs": [
        {
          "internalType": "address",
          "name": "",
          "type": "address"
        }
      ],
      "stateMutability": "view",
      "type": "function",
      "constant": true
    },
    {
      "inputs": [],
      "name": "renounceOwnership",
      "outputs": [],
      "stateMutability": "nonpayable",
      "type": "function"
    },
    {
      "inputs": [
        {
          "internalType": "address",
          "name": "from",
          "type": "address"
        },
        {
          "internalType": "address",
          "name": "to",
          "type": "address"
        },
        {
          "internalType": "uint256[]",
          "name": "ids",
          "type": "uint256[]"
        },
        {
          "internalType": "uint256[]",
          "name": "amounts",
          "type": "uint256[]"
        },
        {
          "internalType": "bytes",
          "name": "data",
          "type": "bytes"
        }
      ],
      "name": "safeBatchTransferFrom",
      "outputs": [],
      "stateMutability": "nonpayable",
      "type": "function"
    },
    {
      "inputs": [
        {
          "internalType": "address",
          "name": "from",
          "type": "address"
        },
        {
          "internalType": "address",
          "name": "to",
          "type": "address"
        },
        {
          "internalType": "uint256",
          "name": "id",
          "type": "uint256"
        },
        {
          "internalType": "uint256",
          "name": "amount",
          "type": "uint256"
        },
        {
          "internalType": "bytes",
          "name": "data",
          "type": "bytes"
        }
      ],
      "name": "safeTransferFrom",
      "outputs": [],
      "stateMutability": "nonpayable",
      "type": "function"
    },
    {
      "inputs": [
        {
          "internalType": "address",
          "name": "operator",
          "type": "address"
        },
        {
          "internalType": "bool",
          "name": "approved",
          "type": "bool"
        }
      ],
      "name": "setApprovalForAll",
      "outputs": [],
      "stateMutability": "nonpayable",
      "type": "function"
    },
    {
      "inputs": [
        {
          "internalType": "bytes4",
          "name": "interfaceId",
          "type": "bytes4"
        }
      ],
      "name": "supportsInterface",
      "outputs": [
        {
          "internalType": "bool",
          "name": "",
          "type": "bool"
        }
      ],
      "stateMutability": "view",
      "type": "function",
      "constant": true
    },
    {
      "inputs": [
        {
          "internalType": "address",
          "name": "newOwner",
          "type": "address"
        }
      ],
      "name": "transferOwnership",
      "outputs": [],
      "stateMutability": "nonpayable",
      "type": "function"
    },
    {
      "inputs": [
        {
          "internalType": "uint256",
          "name": "",
          "type": "uint256"
        }
      ],
      "name": "uri",
      "outputs": [
        {
          "internalType": "string",
          "name": "",
          "type": "string"
        }
      ],
      "stateMutability": "view",
      "type": "function",
      "constant": true
    },
    {
      "inputs": [
        {
          "internalType": "string",
          "name": "newuri",
          "type": "string"
        }
      ],
      "name": "setURI",
      "outputs": [],
      "stateMutability": "nonpayable",
      "type": "function"
    }
  ],
  "bytecode": "0x60806040523480156200001157600080fd5b506040518060200160405280600081525062000033816200005a60201b60201c565b5062000054620000486200007660201b60201c565b6200007e60201b60201c565b62000259565b80600290805190602001906200007292919062000144565b5050565b600033905090565b6000600360009054906101000a900473ffffffffffffffffffffffffffffffffffffffff16905081600360006101000a81548173ffffffffffffffffffffffffffffffffffffffff021916908373ffffffffffffffffffffffffffffffffffffffff1602179055508173ffffffffffffffffffffffffffffffffffffffff168173ffffffffffffffffffffffffffffffffffffffff167f8be0079c531659141344cd1fd0a4f28419497f9722a3daafe3b4186f6b6457e060405160405180910390a35050565b828054620001529062000223565b90600052602060002090601f016020900481019282620001765760008555620001c2565b82601f106200019157805160ff1916838001178555620001c2565b82800160010185558215620001c2579182015b82811115620001c1578251825591602001919060010190620001a4565b5b509050620001d19190620001d5565b5090565b5b80821115620001f0576000816000905550600101620001d6565b5090565b7f4e487b7100000000000000000000000000000000000000000000000000000000600052602260045260246000fd5b600060028204905060018216806200023c57607f821691505b60208210811415620002535762000252620001f4565b5b50919050565b612bf380620002696000396000f3fe608060405234801561001057600080fd5b50600436106100b35760003560e01c8063715018a611610071578063715018a6146101b05780638da5cb5b146101ba578063a22cb465146101d8578063e985e9c5146101f4578063f242432a14610224578063f2fde38b14610240576100b3565b8062fdd58e146100b857806301ffc9a7146100e857806302fe5305146101185780630e89341c146101345780632eb2c2d6146101645780634e1273f414610180575b600080fd5b6100d260048036038101906100cd91906117b7565b61025c565b6040516100df9190611806565b60405180910390f35b61010260048036038101906100fd9190611879565b610325565b60405161010f91906118c1565b60405180910390f35b610132600480360381019061012d9190611a22565b610407565b005b61014e60048036038101906101499190611a6b565b61048f565b60405161015b9190611b20565b60405180910390f35b61017e60048036038101906101799190611cab565b610523565b005b61019a60048036038101906101959190611e3d565b6105c4565b6040516101a79190611f73565b60405180910390f35b6101b86106dd565b005b6101c2610765565b6040516101cf9190611fa4565b60405180910390f35b6101f260048036038101906101ed9190611feb565b61078f565b005b61020e6004803603810190610209919061202b565b6107a5565b60405161021b91906118c1565b60405180910390f35b61023e6004803603810190610239919061206b565b610839565b005b61025a60048036038101906102559190612102565b6108da565b005b60008073ffffffffffffffffffffffffffffffffffffffff168373ffffffffffffffffffffffffffffffffffffffff1614156102cd576040517f08c379a00000000000000000000000000000000000000000000000000000000081526004016102c4906121a1565b60405180910390fd5b60008083815260200190815260200160002060008473ffffffffffffffffffffffffffffffffffffffff1673ffffffffffffffffffffffffffffffffffffffff16815260200190815260200160002054905092915050565b60007fd9b67a26000000000000000000000000000000000000000000000000000000007bffffffffffffffffffffffffffffffffffffffffffffffffffffffff1916827bffffffffffffffffffffffffffffffffffffffffffffffffffffffff191614806103f057507f0e89341c000000000000000000000000000000000000000000000000000000007bffffffffffffffffffffffffffffffffffffffffffffffffffffffff1916827bffffffffffffffffffffffffffffffffffffffffffffffffffffffff1916145b8061040057506103ff826109d2565b5b9050919050565b61040f610a3c565b73ffffffffffffffffffffffffffffffffffffffff1661042d610765565b73ffffffffffffffffffffffffffffffffffffffff1614610483576040517f08c379a000000000000000000000000000000000000000000000000000000000815260040161047a9061220d565b60405180910390fd5b61048c81610a44565b50565b60606002805461049e9061225c565b80601f01602080910402602001604051908101604052809291908181526020018280546104ca9061225c565b80156105175780601f106104ec57610100808354040283529160200191610517565b820191906000526020600020905b8154815290600101906020018083116104fa57829003601f168201915b50505050509050919050565b61052b610a3c565b73ffffffffffffffffffffffffffffffffffffffff168573ffffffffffffffffffffffffffffffffffffffff16148061057157506105708561056b610a3c565b6107a5565b5b6105b0576040517f08c379a00000000000000000000000000000000000000000000000000000000081526004016105a790612300565b60405180910390fd5b6105bd8585858585610a5e565b5050505050565b6060815183511461060a576040517f08c379a000000000000000000000000000000000000000000000000000000000815260040161060190612392565b60405180910390fd5b6000835167ffffffffffffffff811115610627576106266118f7565b5b6040519080825280602002602001820160405280156106555781602001602082028036833780820191505090505b50905060005b84518110156106d2576106a285828151811061067a576106796123b2565b5b6020026020010151858381518110610695576106946123b2565b5b602002602001015161025c565b8282815181106106b5576106b46123b2565b5b602002602001018181525050806106cb90612410565b905061065b565b508091505092915050565b6106e5610a3c565b73ffffffffffffffffffffffffffffffffffffffff16610703610765565b73ffffffffffffffffffffffffffffffffffffffff1614610759576040517f08c379a00000000000000000000000000000000000000000000000000000000081526004016107509061220d565b60405180910390fd5b6107636000610d72565b565b6000600360009054906101000a900473ffffffffffffffffffffffffffffffffffffffff16905090565b6107a161079a610a3c565b8383610e38565b5050565b6000600160008473ffffffffffffffffffffffffffffffffffffffff1673ffffffffffffffffffffffffffffffffffffffff16815260200190815260200160002060008373ffffffffffffffffffffffffffffffffffffffff1673ffffffffffffffffffffffffffffffffffffffff16815260200190815260200160002060009054906101000a900460ff16905092915050565b610841610a3c565b73ffffffffffffffffffffffffffffffffffffffff168573ffffffffffffffffffffffffffffffffffffffff161480610887575061088685610881610a3c565b6107a5565b5b6108c6576040517f08c379a00000000000000000000000000000000000000000000000000000000081526004016108bd906124cb565b60405180910390fd5b6108d38585858585610fa5565b5050505050565b6108e2610a3c565b73ffffffffffffffffffffffffffffffffffffffff16610900610765565b73ffffffffffffffffffffffffffffffffffffffff1614610956576040517f08c379a000000000000000000000000000000000000000000000000000000000815260040161094d9061220d565b60405180910390fd5b600073ffffffffffffffffffffffffffffffffffffffff168173ffffffffffffffffffffffffffffffffffffffff1614156109c6576040517f08c379a00000000000000000000000000000000000000000000000000000000081526004016109bd9061255d565b60405180910390fd5b6109cf81610d72565b50565b60007f01ffc9a7000000000000000000000000000000000000000000000000000000007bffffffffffffffffffffffffffffffffffffffffffffffffffffffff1916827bffffffffffffffffffffffffffffffffffffffffffffffffffffffff1916149050919050565b600033905090565b8060029080519060200190610a5a92919061166c565b5050565b8151835114610aa2576040517f08c379a0000000000000000000000000000000000000000000000000000000008152600401610a99906125ef565b60405180910390fd5b600073ffffffffffffffffffffffffffffffffffffffff168473ffffffffffffffffffffffffffffffffffffffff161415610b12576040517f08c379a0000000000000000000000000000000000000000000000000000000008152600401610b0990612681565b60405180910390fd5b6000610b1c610a3c565b9050610b2c818787878787611227565b60005b8451811015610cdd576000858281518110610b4d57610b4c6123b2565b5b602002602001015190506000858381518110610b6c57610b6b6123b2565b5b60200260200101519050600080600084815260200190815260200160002060008b73ffffffffffffffffffffffffffffffffffffffff1673ffffffffffffffffffffffffffffffffffffffff16815260200190815260200160002054905081811015610c0d576040517f08c379a0000000000000000000000000000000000000000000000000000000008152600401610c0490612713565b60405180910390fd5b81810360008085815260200190815260200160002060008c73ffffffffffffffffffffffffffffffffffffffff1673ffffffffffffffffffffffffffffffffffffffff168152602001908152602001600020819055508160008085815260200190815260200160002060008b73ffffffffffffffffffffffffffffffffffffffff1673ffffffffffffffffffffffffffffffffffffffff1681526020019081526020016000206000828254610cc29190612733565b9250508190555050505080610cd690612410565b9050610b2f565b508473ffffffffffffffffffffffffffffffffffffffff168673ffffffffffffffffffffffffffffffffffffffff168273ffffffffffffffffffffffffffffffffffffffff167f4a39dc06d4c0dbc64b70af90fd698a233a518aa5d07e595d983b8c0526c8f7fb8787604051610d54929190612789565b60405180910390a4610d6a81878787878761122f565b505050505050565b6000600360009054906101000a900473ffffffffffffffffffffffffffffffffffffffff16905081600360006101000a81548173ffffffffffffffffffffffffffffffffffffffff021916908373ffffffffffffffffffffffffffffffffffffffff1602179055508173ffffffffffffffffffffffffffffffffffffffff168173ffffffffffffffffffffffffffffffffffffffff167f8be0079c531659141344cd1fd0a4f28419497f9722a3daafe3b4186f6b6457e060405160405180910390a35050565b8173ffffffffffffffffffffffffffffffffffffffff168373ffffffffffffffffffffffffffffffffffffffff161415610ea7576040517f08c379a0000000000000000000000000000000000000000000000000000000008152600401610e9e90612832565b60405180910390fd5b80600160008573ffffffffffffffffffffffffffffffffffffffff1673ffffffffffffffffffffffffffffffffffffffff16815260200190815260200160002060008473ffffffffffffffffffffffffffffffffffffffff1673ffffffffffffffffffffffffffffffffffffffff16815260200190815260200160002060006101000a81548160ff0219169083151502179055508173ffffffffffffffffffffffffffffffffffffffff168373ffffffffffffffffffffffffffffffffffffffff167f17307eab39ab6107e8899845ad3d59bd9653f200f220920489ca2b5937696c3183604051610f9891906118c1565b60405180910390a3505050565b600073ffffffffffffffffffffffffffffffffffffffff168473ffffffffffffffffffffffffffffffffffffffff161415611015576040517f08c379a000000000000000000000000000000000000000000000000000000000815260040161100c90612681565b60405180910390fd5b600061101f610a3c565b905061103f81878761103088611407565b61103988611407565b87611227565b600080600086815260200190815260200160002060008873ffffffffffffffffffffffffffffffffffffffff1673ffffffffffffffffffffffffffffffffffffffff168152602001908152602001600020549050838110156110d6576040517f08c379a00000000000000000000000000000000000000000000000000000000081526004016110cd90612713565b60405180910390fd5b83810360008087815260200190815260200160002060008973ffffffffffffffffffffffffffffffffffffffff1673ffffffffffffffffffffffffffffffffffffffff168152602001908152602001600020819055508360008087815260200190815260200160002060008873ffffffffffffffffffffffffffffffffffffffff1673ffffffffffffffffffffffffffffffffffffffff168152602001908152602001600020600082825461118b9190612733565b925050819055508573ffffffffffffffffffffffffffffffffffffffff168773ffffffffffffffffffffffffffffffffffffffff168373ffffffffffffffffffffffffffffffffffffffff167fc3d58168c5ae7397731d063d5bbf3d657854427343f4c083240f7aacaa2d0f628888604051611208929190612852565b60405180910390a461121e828888888888611481565b50505050505050565b505050505050565b61124e8473ffffffffffffffffffffffffffffffffffffffff16611659565b156113ff578373ffffffffffffffffffffffffffffffffffffffff1663bc197c8187878686866040518663ffffffff1660e01b81526004016112949594939291906128d0565b6020604051808303816000875af19250505080156112d057506040513d601f19601f820116820180604052508101906112cd919061294d565b60015b611376576112dc612987565b806308c379a0141561133957506112f16129a9565b806112fc575061133b565b806040517f08c379a00000000000000000000000000000000000000000000000000000000081526004016113309190611b20565b60405180910390fd5b505b6040517f08c379a000000000000000000000000000000000000000000000000000000000815260040161136d90612ab1565b60405180910390fd5b63bc197c8160e01b7bffffffffffffffffffffffffffffffffffffffffffffffffffffffff1916817bffffffffffffffffffffffffffffffffffffffffffffffffffffffff1916146113fd576040517f08c379a00000000000000000000000000000000000000000000000000000000081526004016113f490612b43565b60405180910390fd5b505b505050505050565b60606000600167ffffffffffffffff811115611426576114256118f7565b5b6040519080825280602002602001820160405280156114545781602001602082028036833780820191505090505b509050828160008151811061146c5761146b6123b2565b5b60200260200101818152505080915050919050565b6114a08473ffffffffffffffffffffffffffffffffffffffff16611659565b15611651578373ffffffffffffffffffffffffffffffffffffffff1663f23a6e6187878686866040518663ffffffff1660e01b81526004016114e6959493929190612b63565b6020604051808303816000875af192505050801561152257506040513d601f19601f8201168201806040525081019061151f919061294d565b60015b6115c85761152e612987565b806308c379a0141561158b57506115436129a9565b8061154e575061158d565b806040517f08c379a00000000000000000000000000000000000000000000000000000000081526004016115829190611b20565b60405180910390fd5b505b6040517f08c379a00000000000000000000000000000000000000000000000000000000081526004016115bf90612ab1565b60405180910390fd5b63f23a6e6160e01b7bffffffffffffffffffffffffffffffffffffffffffffffffffffffff1916817bffffffffffffffffffffffffffffffffffffffffffffffffffffffff19161461164f576040517f08c379a000000000000000000000000000000000000000000000000000000000815260040161164690612b43565b60405180910390fd5b505b505050505050565b600080823b905060008111915050919050565b8280546116789061225c565b90600052602060002090601f01602090048101928261169a57600085556116e1565b82601f106116b357805160ff19168380011785556116e1565b828001600101855582156116e1579182015b828111156116e05782518255916020019190600101906116c5565b5b5090506116ee91906116f2565b5090565b5b8082111561170b5760008160009055506001016116f3565b5090565b6000604051905090565b600080fd5b600080fd5b600073ffffffffffffffffffffffffffffffffffffffff82169050919050565b600061174e82611723565b9050919050565b61175e81611743565b811461176957600080fd5b50565b60008135905061177b81611755565b92915050565b6000819050919050565b61179481611781565b811461179f57600080fd5b50565b6000813590506117b18161178b565b92915050565b600080604083850312156117ce576117cd611719565b5b60006117dc8582860161176c565b92505060206117ed858286016117a2565b9150509250929050565b61180081611781565b82525050565b600060208201905061181b60008301846117f7565b92915050565b60007fffffffff0000000000000000000000000000000000000000000000000000000082169050919050565b61185681611821565b811461186157600080fd5b50565b6000813590506118738161184d565b92915050565b60006020828403121561188f5761188e611719565b5b600061189d84828501611864565b91505092915050565b60008115159050919050565b6118bb816118a6565b82525050565b60006020820190506118d660008301846118b2565b92915050565b600080fd5b600080fd5b6000601f19601f8301169050919050565b7f4e487b7100000000000000000000000000000000000000000000000000000000600052604160045260246000fd5b61192f826118e6565b810181811067ffffffffffffffff8211171561194e5761194d6118f7565b5b80604052505050565b600061196161170f565b905061196d8282611926565b919050565b600067ffffffffffffffff82111561198d5761198c6118f7565b5b611996826118e6565b9050602081019050919050565b82818337600083830152505050565b60006119c56119c084611972565b611957565b9050828152602081018484840111156119e1576119e06118e1565b5b6119ec8482856119a3565b509392505050565b600082601f830112611a0957611a086118dc565b5b8135611a198482602086016119b2565b91505092915050565b600060208284031215611a3857611a37611719565b5b600082013567ffffffffffffffff811115611a5657611a5561171e565b5b611a62848285016119f4565b91505092915050565b600060208284031215611a8157611a80611719565b5b6000611a8f848285016117a2565b91505092915050565b600081519050919050565b600082825260208201905092915050565b60005b83811015611ad2578082015181840152602081019050611ab7565b83811115611ae1576000848401525b50505050565b6000611af282611a98565b611afc8185611aa3565b9350611b0c818560208601611ab4565b611b15816118e6565b840191505092915050565b60006020820190508181036000830152611b3a8184611ae7565b905092915050565b600067ffffffffffffffff821115611b5d57611b5c6118f7565b5b602082029050602081019050919050565b600080fd5b6000611b86611b8184611b42565b611957565b90508083825260208201905060208402830185811115611ba957611ba8611b6e565b5b835b81811015611bd25780611bbe88826117a2565b845260208401935050602081019050611bab565b5050509392505050565b600082601f830112611bf157611bf06118dc565b5b8135611c01848260208601611b73565b91505092915050565b600067ffffffffffffffff821115611c2557611c246118f7565b5b611c2e826118e6565b9050602081019050919050565b6000611c4e611c4984611c0a565b611957565b905082815260208101848484011115611c6a57611c696118e1565b5b611c758482856119a3565b509392505050565b600082601f830112611c9257611c916118dc565b5b8135611ca2848260208601611c3b565b91505092915050565b600080600080600060a08688031215611cc757611cc6611719565b5b6000611cd58882890161176c565b9550506020611ce68882890161176c565b945050604086013567ffffffffffffffff811115611d0757611d0661171e565b5b611d1388828901611bdc565b935050606086013567ffffffffffffffff811115611d3457611d3361171e565b5b611d4088828901611bdc565b925050608086013567ffffffffffffffff811115611d6157611d6061171e565b5b611d6d88828901611c7d565b9150509295509295909350565b600067ffffffffffffffff821115611d9557611d946118f7565b5b602082029050602081019050919050565b6000611db9611db484611d7a565b611957565b90508083825260208201905060208402830185811115611ddc57611ddb611b6e565b5b835b81811015611e055780611df1888261176c565b845260208401935050602081019050611dde565b5050509392505050565b600082601f830112611e2457611e236118dc565b5b8135611e34848260208601611da6565b91505092915050565b60008060408385031215611e5457611e53611719565b5b600083013567ffffffffffffffff811115611e7257611e7161171e565b5b611e7e85828601611e0f565b925050602083013567ffffffffffffffff811115611e9f57611e9e61171e565b5b611eab85828601611bdc565b9150509250929050565b600081519050919050565b600082825260208201905092915050565b6000819050602082019050919050565b611eea81611781565b82525050565b6000611efc8383611ee1565b60208301905092915050565b6000602082019050919050565b6000611f2082611eb5565b611f2a8185611ec0565b9350611f3583611ed1565b8060005b83811015611f66578151611f4d8882611ef0565b9750611f5883611f08565b925050600181019050611f39565b5085935050505092915050565b60006020820190508181036000830152611f8d8184611f15565b905092915050565b611f9e81611743565b82525050565b6000602082019050611fb96000830184611f95565b92915050565b611fc8816118a6565b8114611fd357600080fd5b50565b600081359050611fe581611fbf565b92915050565b6000806040838503121561200257612001611719565b5b60006120108582860161176c565b925050602061202185828601611fd6565b9150509250929050565b6000806040838503121561204257612041611719565b5b60006120508582860161176c565b92505060206120618582860161176c565b9150509250929050565b600080600080600060a0868803121561208757612086611719565b5b60006120958882890161176c565b95505060206120a68882890161176c565b94505060406120b7888289016117a2565b93505060606120c8888289016117a2565b925050608086013567ffffffffffffffff8111156120e9576120e861171e565b5b6120f588828901611c7d565b9150509295509295909350565b60006020828403121561211857612117611719565b5b60006121268482850161176c565b91505092915050565b7f455243313135353a2062616c616e636520717565727920666f7220746865207a60008201527f65726f2061646472657373000000000000000000000000000000000000000000602082015250565b600061218b602b83611aa3565b91506121968261212f565b604082019050919050565b600060208201905081810360008301526121ba8161217e565b9050919050565b7f4f776e61626c653a2063616c6c6572206973206e6f7420746865206f776e6572600082015250565b60006121f7602083611aa3565b9150612202826121c1565b602082019050919050565b60006020820190508181036000830152612226816121ea565b9050919050565b7f4e487b7100000000000000000000000000000000000000000000000000000000600052602260045260246000fd5b6000600282049050600182168061227457607f821691505b602082108114156122885761228761222d565b5b50919050565b7f455243313135353a207472616e736665722063616c6c6572206973206e6f742060008201527f6f776e6572206e6f7220617070726f7665640000000000000000000000000000602082015250565b60006122ea603283611aa3565b91506122f58261228e565b604082019050919050565b60006020820190508181036000830152612319816122dd565b9050919050565b7f455243313135353a206163636f756e747320616e6420696473206c656e67746860008201527f206d69736d617463680000000000000000000000000000000000000000000000602082015250565b600061237c602983611aa3565b915061238782612320565b604082019050919050565b600060208201905081810360008301526123ab8161236f565b9050919050565b7f4e487b7100000000000000000000000000000000000000000000000000000000600052603260045260246000fd5b7f4e487b7100000000000000000000000000000000000000000000000000000000600052601160045260246000fd5b600061241b82611781565b91507fffffffffffffffffffffffffffffffffffffffffffffffffffffffffffffffff82141561244e5761244d6123e1565b5b600182019050919050565b7f455243313135353a2063616c6c6572206973206e6f74206f776e6572206e6f7260008201527f20617070726f7665640000000000000000000000000000000000000000000000602082015250565b60006124b5602983611aa3565b91506124c082612459565b604082019050919050565b600060208201905081810360008301526124e4816124a8565b9050919050565b7f4f776e61626c653a206e6577206f776e657220697320746865207a65726f206160008201527f6464726573730000000000000000000000000000000000000000000000000000602082015250565b6000612547602683611aa3565b9150612552826124eb565b604082019050919050565b600060208201905081810360008301526125768161253a565b9050919050565b7f455243313135353a2069647320616e6420616d6f756e7473206c656e6774682060008201527f6d69736d61746368000000000000000000000000000000000000000000000000602082015250565b60006125d9602883611aa3565b91506125e48261257d565b604082019050919050565b60006020820190508181036000830152612608816125cc565b9050919050565b7f455243313135353a207472616e7366657220746f20746865207a65726f20616460008201527f6472657373000000000000000000000000000000000000000000000000000000602082015250565b600061266b602583611aa3565b91506126768261260f565b604082019050919050565b6000602082019050818103600083015261269a8161265e565b9050919050565b7f455243313135353a20696e73756666696369656e742062616c616e636520666f60008201527f72207472616e7366657200000000000000000000000000000000000000000000602082015250565b60006126fd602a83611aa3565b9150612708826126a1565b604082019050919050565b6000602082019050818103600083015261272c816126f0565b9050919050565b600061273e82611781565b915061274983611781565b9250827fffffffffffffffffffffffffffffffffffffffffffffffffffffffffffffffff0382111561277e5761277d6123e1565b5b828201905092915050565b600060408201905081810360008301526127a38185611f15565b905081810360208301526127b78184611f15565b90509392505050565b7f455243313135353a2073657474696e6720617070726f76616c2073746174757360008201527f20666f722073656c660000000000000000000000000000000000000000000000602082015250565b600061281c602983611aa3565b9150612827826127c0565b604082019050919050565b6000602082019050818103600083015261284b8161280f565b9050919050565b600060408201905061286760008301856117f7565b61287460208301846117f7565b9392505050565b600081519050919050565b600082825260208201905092915050565b60006128a28261287b565b6128ac8185612886565b93506128bc818560208601611ab4565b6128c5816118e6565b840191505092915050565b600060a0820190506128e56000830188611f95565b6128f26020830187611f95565b81810360408301526129048186611f15565b905081810360608301526129188185611f15565b9050818103608083015261292c8184612897565b90509695505050505050565b6000815190506129478161184d565b92915050565b60006020828403121561296357612962611719565b5b600061297184828501612938565b91505092915050565b60008160e01c9050919050565b600060033d11156129a65760046000803e6129a360005161297a565b90505b90565b600060443d10156129b957612a3c565b6129c161170f565b60043d036004823e80513d602482011167ffffffffffffffff821117156129e9575050612a3c565b808201805167ffffffffffffffff811115612a075750505050612a3c565b80602083010160043d038501811115612a24575050505050612a3c565b612a3382602001850186611926565b82955050505050505b90565b7f455243313135353a207472616e7366657220746f206e6f6e204552433131353560008201527f526563656976657220696d706c656d656e746572000000000000000000000000602082015250565b6000612a9b603483611aa3565b9150612aa682612a3f565b604082019050919050565b60006020820190508181036000830152612aca81612a8e565b9050919050565b7f455243313135353a204552433131353552656365697665722072656a6563746560008201527f6420746f6b656e73000000000000000000000000000000000000000000000000602082015250565b6000612b2d602883611aa3565b9150612b3882612ad1565b604082019050919050565b60006020820190508181036000830152612b5c81612b20565b9050919050565b600060a082019050612b786000830188611f95565b612b856020830187611f95565b612b9260408301866117f7565b612b9f60608301856117f7565b8181036080830152612bb18184612897565b9050969550505050505056fea26469706673582212205a0cfaca799c7daffe094425b3f5d1d19510e8032e5a44f4669d975d66c9374164736f6c634300080a0033",
  "immutableReferences": {},
  "source": "// SPDX-License-Identifier: MIT\npragma solidity ^0.8.2;\n\nimport \"@openzeppelin/contracts/token/ERC1155/ERC1155.sol\";\nimport \"@openzeppelin/contracts/access/Ownable.sol\";\n\ncontract MyERC1155 is ERC1155, Ownable {\n    constructor() ERC1155(\"\") {}\n\n    function setURI(string memory newuri) public onlyOwner {\n        _setURI(newuri);\n    }\n}\n",
  "sourcePath": "/home/abi/Project/erc1155/contracts/MyERC1155.sol",
  "compiler": {
    "name": "solc",
    "version": "0.8.10+commit.fc410830.Emscripten.clang"
  },
  "schemaVersion": "3.4.3",
  "updatedAt": "2022-01-04T09:33:30.154Z",
  "networkType": "ethereum",
  "devdoc": {
    "kind": "dev",
    "methods": {
      "balanceOf(address,uint256)": {
        "details": "See {IERC1155-balanceOf}. Requirements: - `account` cannot be the zero address."
      },
      "balanceOfBatch(address[],uint256[])": {
        "details": "See {IERC1155-balanceOfBatch}. Requirements: - `accounts` and `ids` must have the same length."
      },
      "isApprovedForAll(address,address)": {
        "details": "See {IERC1155-isApprovedForAll}."
      },
      "owner()": {
        "details": "Returns the address of the current owner."
      },
      "renounceOwnership()": {
        "details": "Leaves the contract without owner. It will not be possible to call `onlyOwner` functions anymore. Can only be called by the current owner. NOTE: Renouncing ownership will leave the contract without an owner, thereby removing any functionality that is only available to the owner."
      },
      "safeBatchTransferFrom(address,address,uint256[],uint256[],bytes)": {
        "details": "See {IERC1155-safeBatchTransferFrom}."
      },
      "safeTransferFrom(address,address,uint256,uint256,bytes)": {
        "details": "See {IERC1155-safeTransferFrom}."
      },
      "setApprovalForAll(address,bool)": {
        "details": "See {IERC1155-setApprovalForAll}."
      },
      "supportsInterface(bytes4)": {
        "details": "See {IERC165-supportsInterface}."
      },
      "transferOwnership(address)": {
        "details": "Transfers ownership of the contract to a new account (`newOwner`). Can only be called by the current owner."
      },
      "uri(uint256)": {
        "details": "See {IERC1155MetadataURI-uri}. This implementation returns the same URI for *all* token types. It relies on the token type ID substitution mechanism https://eips.ethereum.org/EIPS/eip-1155#metadata[defined in the EIP]. Clients calling this function must replace the `\\{id\\}` substring with the actual token type ID."
      }
    },
    "version": 1
  },
  "userdoc": {
    "kind": "user",
    "methods": {},
    "version": 1
  }
}